:020000040000fa
:080000000001040000000000f3
:020000040000fa
:100200008f80200000ff2000000188000000000017
:100210000c000700403320000100200011000700ff
:10022000000020000000e000020032000000020098
:100230000000000090010200000000000040da0011
:100240000000fe004440a900000020000000e00083
:100250000300320000002000a00188004440a800f4
:100260000000060091018800800078000000eb008b
:1002700015003700e280400032a0b4009101ba00be
:10028000e280400032a0b4009102ba00e280400057
:1002900032a0b4000002eb00472bde00f507b200ed
:1002a000602ce10004003a000059eb008301e900f2
:1002b000fdff3e00040037006128e100010032002c
:1002c0000082eb00040007001101ba000200e00008
:1002d000e8ff3a00000006003159ba008301e90046
:1002e0000c0032002159ba008301e90008003200f5
:1002f0000400e00003003a00e280400032a0b400b5
:10030000f5ff370011d9ba008301e900faff3a007e
:100310008100e800e180400032a0b4000000060047
:020000040000fa
:0200000401f009
:04000000f2ff00000b
:020000040000fa
:0200000401f009
:04000400ff7f00007a
:020000040000fa
:0200000401f009
:040008007fff000076
:020000040000fa
:0200000401f009
:04001400ffff0000ea
:020000040000fa
:1000080042030000420300004203000042030000d4
:1000180042030000420300004203000042030000c4
:1000280042030000420300004203000042030000b4
:1000380042030000420300004203000042030000a4
:100048004203000042030000420300004203000094
:100058004203000042030000420300004203000084
:100068004203000042030000420300004203000074
:100078004203000042030000420300004203000064
:100088001c0300000c0300004203000042030000b0
:100098004203000042030000420300004203000044
:1000a8004203000042030000420300004203000034
:1000b8004203000042030000420300004203000024
:1000c8004203000042030000420300004203000014
:1000d8004203000042030000420300004203000004
:1000e80042030000420300004203000042030000f4
:0800f800420300004203000076
:020000040000fa
:1001080042030000420300004203000042030000d3
:1001180042030000420300004203000042030000c3
:1001280042030000420300004203000042030000b3
:1001380042030000420300004203000042030000a3
:100148004203000042030000420300004203000093
:100158004203000042030000420300004203000083
:100168004203000042030000420300004203000073
:100178004203000042030000420300004203000063
:100188001c0300000c0300004203000042030000af
:100198004203000042030000420300004203000043
:1001a8004203000042030000420300004203000033
:1001b8004203000042030000420300004203000023
:1001c8004203000042030000420300004203000013
:1001d8004203000042030000420300004203000003
:1001e80042030000420300004203000042030000f3
:0801f800420300004203000075
:020000040000fa
:100320000400fa0079000700840007009e0007001f
:10033000c802a800c842a900c862a800000037008f
:100340000040800010079800400620009e009000aa
:10035000808f500005003200800c20009e0090002d
:10036000808f500039003200f5ff370020408000b8
:10037000000f7800700320009e007800808f5000ee
:1003800026003200700320009e007800808f50000d
:100390000d003c00d00220009e007800808f5000ad
:1003a00016003200200320009e007800808f50004d
:1003b00016003200800220009e007800808f5000de
:1003c0000a003200deff3700c00320009e007800e4
:1003d000808f500015003200100420009e0078002d
:1003e000808f500015003200d5ff3700c802a900e9
:1003f000a000200010408800d1ff3700c802a800ec
:10040000f000200010408800cdff3700c842a9004e
:100410004001200010408800c9ff3700c842a800f2
:100420009001200010408800c5ff3700c862a90075
:10043000e001200010408800c1ff3700c862a8001a
:100440003002200010408800bdff3700dac2bf0034
:10045000614060000004e00004003200c802a9000e
:10046000a000200010408800b5ff3700dac2bf00ae
:10047000614060000004e00004003a00c802a800e7
:10048000f000200010408800adff3700dac2bf0046
:10049000624060000004e00004003200c842a9008d
:1004a0004001200010408800a5ff3700dac2bf00dd
:1004b000624060000004e00004003a00c842a80066
:1004c00090012000104088009dff3700dac2bf0075
:1004d000684060000004e00004003200c862a80028
:1004e000e00120001040880095ff3700dac2bf000d
:1004f000684060000004e00091ff3a00c862a90073
:1005000030022000104088008dff37000000fa0004
:10051000c602a900a802a800c642a900a842a800d5
:10052000c662a900a862a800d802a800d822a80024
:10053000d862a8000080fa00000006000000fa005f
:100540000000eb00b01088000000eb00c010880035
:1005500000022000f0108800612120009140780006
:1005600090cfb30000c0600016e2b7001602a900e9
:100570008f20a800010a200091407800f0c8b30045
:1005800000c0600001c4b30001407000a0e0b700eb
:1005900019e2a9008720a90017e2a8001942a800c3
:1005a0000080fa00000006000000fa000000eb00e6
:1005b000b0108800612120009140780090cfb300f6
:1005c00000c0600016e2b70000022000f0108800b2
:1005d0000000eb00c010880018c2bf00f043b2005a
:1005e00018e2b7001602a9008f00a800010a200037
:1005f0009140780080cfb30000c060000024a000cc
:10060000a0e0b7008700a90017e2a8001942a900de
:100610000080fa0000000600801f78000000fa0049
:1006200010408000d01088008720a9000080fa00c8
:100630004f00780000400600801f78000000fa009c
:10064000e010800000408800e0108000204088001a
:10065000e0108000304088008700a9000080fa0088
:080660004f0078000040060085
:020000040000fa
:100668000008000008000000020000000000000070
:0c06780000000000000000000000000076
:020000040000fa
:040684000000fe0074
:00000001FF
